:020000040000fa
:080000000002040000000000f2
:020000040000fa
:04000800f0050000ff
:020000040000fa
:04000c0008060000e2
:020000040000fa
:04001000b606000030
:020000040000fa
:0400140020060000c2
:020000040000fa
:0400180038060000a6
:020000040000fa
:04001c00b606000024
:020000040000fa
:04002000b606000020
:020000040000fa
:04002400b60600001c
:020000040000fa
:04002800b606000018
:020000040000fa
:04002c00b606000014
:020000040000fa
:04003000b606000010
:020000040000fa
:04003400480400007c
:020000040000fa
:04003800b606000008
:020000040000fa
:04003c00b606000004
:020000040000fa
:04004000b606000000
:020000040000fa
:04004400b6060000fc
:020000040000fa
:040048009a03000017
:020000040000fa
:04004c00b6060000f4
:020000040000fa
:040050002404000084
:020000040000fa
:04005400b6060000ec
:020000040000fa
:04005800b6060000e8
:020000040000fa
:04005c00e2030000bb
:020000040000fa
:04006000b6060000e0
:020000040000fa
:04006400b6060000dc
:020000040000fa
:04006800b6060000d8
:020000040000fa
:04006c00b6060000d4
:020000040000fa
:04007000b6060000d0
:020000040000fa
:04007400b6060000cc
:020000040000fa
:04007800b6060000c8
:020000040000fa
:04007c00b6060000c4
:020000040000fa
:04008000b6060000c0
:020000040000fa
:04008400b6060000bc
:020000040000fa
:04008800b6060000b8
:020000040000fa
:04008c00b6060000b4
:020000040000fa
:04009000b6060000b0
:020000040000fa
:04009400b6060000ac
:020000040000fa
:04009800b6060000a8
:020000040000fa
:04009c00b6060000a4
:020000040000fa
:0400a0005a060000fc
:020000040000fa
:0400a4005006000002
:020000040000fa
:0400a800b606000098
:020000040000fa
:0400ac00b606000094
:020000040000fa
:0400b000b606000090
:020000040000fa
:0400b400b60600008c
:020000040000fa
:0400b800b606000088
:020000040000fa
:0400bc00b606000084
:020000040000fa
:0400c000b606000080
:020000040000fa
:0400c400b60600007c
:020000040000fa
:0400c800b606000078
:020000040000fa
:0400cc00b606000074
:020000040000fa
:0400d000b606000070
:020000040000fa
:0400d400b60600006c
:020000040000fa
:0400d800b606000068
:020000040000fa
:0400dc00b606000064
:020000040000fa
:0400e000b606000060
:020000040000fa
:0400e400b60600005c
:020000040000fa
:0400e800b606000058
:020000040000fa
:0400ec0040040000cc
:020000040000fa
:0400f00030040000d8
:020000040000fa
:0400f400b60600004c
:020000040000fa
:0400f800b606000048
:020000040000fa
:0400fc00b606000044
:020000040000fa
:04010000b60600003f
:020000040000fa
:04010400b60600003b
:020000040000fa
:04010800b606000037
:020000040000fa
:04010c00b606000033
:020000040000fa
:04011000b60600002f
:020000040000fa
:04011400b60600002b
:020000040000fa
:04011800b606000027
:020000040000fa
:04011c00b606000023
:020000040000fa
:04012000b60600001f
:020000040000fa
:04012400b60600001b
:020000040000fa
:04012800b606000017
:020000040000fa
:04012c00b606000013
:020000040000fa
:04013000b60600000f
:020000040000fa
:04013400b60600000b
:020000040000fa
:04013800b606000007
:020000040000fa
:04013c00b606000003
:020000040000fa
:04014000b6060000ff
:020000040000fa
:04014400b6060000fb
:020000040000fa
:04014800b6060000f7
:020000040000fa
:04014c00b6060000f3
:020000040000fa
:04015000b6060000ef
:020000040000fa
:04015400b6060000eb
:020000040000fa
:04015800b6060000e7
:020000040000fa
:04015c00b6060000e3
:020000040000fa
:04016000b6060000df
:020000040000fa
:04016400b6060000db
:020000040000fa
:04016800b6060000d7
:020000040000fa
:04016c00b6060000d3
:020000040000fa
:04017000b6060000cf
:020000040000fa
:04017400b6060000cb
:020000040000fa
:04017800b6060000c7
:020000040000fa
:04017c00b6060000c3
:020000040000fa
:04018000b6060000bf
:020000040000fa
:04018400b6060000bb
:020000040000fa
:04018800b6060000b7
:020000040000fa
:04018c00b6060000b3
:020000040000fa
:04019000b6060000af
:020000040000fa
:04019400b6060000ab
:020000040000fa
:04019800b6060000a7
:020000040000fa
:04019c00b6060000a3
:020000040000fa
:0401a000a6030000b2
:020000040000fa
:0401a400c403000090
:020000040000fa
:0401a800b606000097
:020000040000fa
:0401ac00b606000093
:020000040000fa
:0401b000b60600008f
:020000040000fa
:0401b400b60600008b
:020000040000fa
:0401b800b606000087
:020000040000fa
:0401bc00b606000083
:020000040000fa
:0401c000b60600007f
:020000040000fa
:0401c400b60600007b
:020000040000fa
:0401c800b606000077
:020000040000fa
:0401cc00b606000073
:020000040000fa
:0401d000b60600006f
:020000040000fa
:0401d400b60600006b
:020000040000fa
:0401d800b606000067
:020000040000fa
:0401dc00b606000063
:020000040000fa
:0401e000b60600005f
:020000040000fa
:0401e400b60600005b
:020000040000fa
:0401e800b606000057
:020000040000fa
:0401ec00b606000053
:020000040000fa
:0401f000b60600004f
:020000040000fa
:0401f400b60600004b
:020000040000fa
:0401f800b606000047
:020000040000fa
:0401fc00b606000043
:020000040000fa
:04020000b60600003e
:020000040000fa
:04020400b60600003a
:020000040000fa
:04020800b606000036
:020000040000fa
:04020c00b606000032
:020000040000fa
:04021000b60600002e
:020000040000fa
:04021400b60600002a
:020000040000fa
:04021800b606000026
:020000040000fa
:04021c00b606000022
:020000040000fa
:04022000b60600001e
:020000040000fa
:04022400b60600001a
:020000040000fa
:04022800b606000016
:020000040000fa
:04022c00b606000012
:020000040000fa
:04023000b60600000e
:020000040000fa
:04023400b60600000a
:020000040000fa
:04023800b606000006
:020000040000fa
:04023c00b606000002
:020000040000fa
:04024000b6060000fe
:020000040000fa
:04024400b6060000fa
:020000040000fa
:04024800b6060000f6
:020000040000fa
:04024c00b6060000f2
:020000040000fa
:04025000b6060000ee
:020000040000fa
:04025400b6060000ea
:020000040000fa
:04025800b6060000e6
:020000040000fa
:04025c00b6060000e2
:020000040000fa
:04026000b6060000de
:020000040000fa
:04026400b6060000da
:020000040000fa
:04026800b6060000d6
:020000040000fa
:04026c00b6060000d2
:020000040000fa
:04027000b6060000ce
:020000040000fa
:04027400b6060000ca
:020000040000fa
:04027800b6060000c6
:020000040000fa
:04027c00b6060000c2
:020000040000fa
:04028000b6060000be
:020000040000fa
:100400004f8e22000eff22000e0188000000000027
:10041000000020000000e000020032000001200087
:100420002002880014000700520207000000e000cc
:1004300003003a00003828000100200002003700c5
:100440000000200001002000810f70000100320038
:100450000f000700000020000000e0000200320052
:1004600000000200000000003882020000000000ce
:100470000040da000000fe00e0d620000000e000ae
:1004800002003200002020009001880000000600d9
:10049000a1028800800478000000eb001f003700f4
:1004a000e284440054a0b4009905ba00e2844400f8
:1004b00054a0b4009906ba00e284440054a0b400e9
:1004c0000006eb00476fde00fd07b200ae018800ba
:1004d000636ce10003003a000ad801000000eb0061
:1004e0000e003700606ce10008003a00004deb00a0
:1004f0000a05e800020039003420ec000af0a000f0
:100500008b05e900f9ff3e00040037006168e10057
:10051000010032000086eb000b00070019c7ba008b
:100520000e04e0001905ba0003003a000a00e000da
:10053000dbff3a0000000600fe07b200ae028800b2
:100540008a047800f5ff37000cd0a300e20f4d00bd
:100550001c00390089027800354dba000a05e80010
:10056000020039003420ec000af0a0008b05e900fd
:100570000f003200254dba000a05e80002003900dc
:100580003420ec000af0a0008b05e90008003200de
:100590000c00e0000600320015cdba000a05e800a4
:1005a000020039003420ec000af0a0008b05e900bd
:1005b0008984e80054a0b4000b00e000e2ff3a0098
:1005c000000006009902ba00055d78008b05e9007d
:1005d000f7ff3200c82ade00055d78008b05e900d0
:1005e000f3ff32000c00e000f1ff320019ddba0029
:1005f000eeff3700000000000000000000000000d7
:1006000000000000000000000000000000000000ea
:1006100000000000000000000000000000000000da
:1006200000000000000000000000000000000000ca
:1006300000000000000000000000000000000000ba
:1006400000000000000000000000000000000000aa
:10065000000000000000000000000000000000009a
:10066000000000000000000000000000000000008a
:10067000000000000000000000000000000000007a
:10068000000000000000000000000000000000006a
:10069000000000000000000000000000000000005a
:1006a000000000000000000000000000000000004a
:1006b000000000000000000000000000000000003a
:1006c000000000000000000000000000000000002a
:1006d000000000000000000000000000000000001a
:1006e000000000000000000000000000000000000a
:1006f00000000000000000000000000000000000fa
:1007000000000000000000000000000000000000e9
:1007100000000000000000000000000000000000d9
:1007200000000000000000000000000000000000c9
:10073000000000000000fa000108a90013e1a90070
:100740002023a9000080fa00004006003600f800cf
:10075000809fbe00829fbe00849fbe00869fbe0019
:100760000000fa000bc8a900133a07000080fa0045
:100770004f03be004f02be004f01be004f00be003f
:100780003600f900004006003600f800809fbe00e9
:10079000829fbe00849fbe00869fbe000000fa00bc
:1007a0000be8a900043a07000080fa004f03be00de
:1007b0004f02be004f01be004f00be003600f900e0
:1007c000004006003600f800809fbe00829fbe00f9
:1007d000849fbe00869fbe000000fa0001a8a90009
:1007e000aed0bf000004e000080032000018800016
:1007f00050858800508580008000eb000001be001d
:10080000a08b220005380700070037000018800081
:1008100060858800608580008000eb000001be00dc
:10082000408c2200fd37070021e3a9000080fa0078
:100830004f03be004f02be004f01be004f00be007e
:100840003600f900004006000000fa000148a90047
:10085000cc30ef0040c2a9000080fa000040060042
:10086000801f78000000fa0010002000e08088005f
:100870000648a9000080fa004f00780000400600fa
:100880000000fa000628a9000080fa0000400600d7
:100890003600f800809fbe00829fbe00849fbe008d
:1008a000869fbe002800fa000068a90042848000ec
:1008b000120078009200900061004000e080480043
:1008c0000089be0050848000618480006100400087
:1008d000e080480050848800618488005284800051
:1008e000638480000071220001002000800f51000d
:1008f000818f5900b3003600d2d0bf000004e00061
:10090000b00032000000eb00601d0700000f78000f
:100910000000eb00671d0700801f78001e007800b4
:10092000000001008f87e90060562b00801f7800cf
:100930001e007800000001008f87e90080562b0020
:10094000801f78001e007800000001008f87e900fa
:10095000261d070010079800210798001e00900030
:10096000ae009000823e200003002000b702070086
:1009700030079800410798001e009000ae009000dc
:10098000823e200003002000a0020700823e2000db
:1009900003002000ad02070050079800610798008f
:1009a0001e009000ae00900002242400f3002000fe
:1009b00096020700823e200003002000a3020700e9
:1009c00070079800010f98000000eb002f1d070032
:1009d000100f98003e009000ce009000809fbe0057
:1009e0005e009000ee009000809fbe007e009000b0
:1009f0008e089000809fbe00c0562b00801f78009c
:100a00001e08900000000100ee875700f71c070049
:100a10000002eb00841f78000002eb00841f7800c6
:100a20000002eb00841f780044002000841f78003f
:100a3000809fbe00829fbe0080582b00801f7800e0
:100a40001e00780000000100f2875700305b2b0089
:100a5000801f78001e007800000001008f87e900e9
:100a60000000eb00091d0700200f98000000eb00bc
:100a7000101d0700801f78002e0890000000010064
:100a80008f87e90060562b00801f78002e089000a9
:100a9000000001008f87e90080562b00801f78003e
:100aa0002e089000000001008f87e900cf1c07008e
:100ab000300f9800410f98003e089000ce0890003b
:100ac000823e20000300200060020700500f9800c3
:100ad000610f98003e089000ce089000823e2000f2
:100ae0000300200049020700823e2000030020008e
:100af00056020700700f9800011798003e089000fa
:100b0000ce08900002242400f30020003f020700da
:100b1000823e2000030020004c02070010179800be
:100b2000211798000000eb00d81c07003017980030
:100b30005e089000ee089000809fbe007e08900046
:100b40008e109000809fbe001e109000ae1090008e
:100b5000809fbe00c0562b00801f78003e10900082
:100b600000000100ee8757000000eb00d31b0700d8
:100b700011028000c508de00e7c060008180fb0034
:100b8000801f7800811f7800805b2b00801f780019
:100b90002e08900000000100e6875700305b2b0014
:100ba000801f78002e089000000001008f87e90068
:100bb00000902000d10320004348070040a7a80070
:100bc000ffff37000080fa004f03be004f02be0057
:100bd0004f01be004f00be003600f9000040060085
:100be00001092100cf107800cf187800a11f7800ec
:100bf000b11f78000000fa00c028a9000000000022
:100c000000000000000000000080fa000040060024
:100c100001092100cf107800cf187800a11f7800bb
:100c2000b11f78000000fa00c068a90000000000b1
:100c300000000000000000000080fa0000400600f4
:100c400001092100cf107800cf187800a11f78008b
:100c5000b11f78000000fa00c048a90000000000a1
:100c600000000000000000000080fa0000400600c4
:100c700001092100cf107800cf187800a11f78005b
:100c8000b11f78000000fa00000000000000000022
:100c900000000000c088a9000080fa0000400600a3
:100ca0000000fa0003e8a900000000000080fa003c
:100cb000004006003600f800809fbe00829fbe0004
:100cc000849fbe00869fbe000000fa0003c8a900f2
:100cd0001b00370090118000620060000000e000ff
:100ce000020032003222a90015003700b011800046
:100cf00080407800008e220001487800008e22009b
:100d000010407800ea4f500008003200008e2200a8
:100d100010407800ed4f500004003200008e220099
:100d2000104078002a3c0700050037000000000052
:100d30000000000000000000983c0700e73b0700af
:100d400090118000610060000000e000e1ff3a00c7
:100d50000080fa004f03be004f02be004f01be00ec
:100d60004f00be003600f900004006000040da00e7
:100d70000000fe000000050003f0a200889fbe00f6
:100d80008a9fbe008c1f7800540107005b0133006e
:100d90006450e1004f0032006420e1005200320054
:100da00003826c0007003b000905d0000306d00059
:100db000820f54000c065d00020039000200320070
:100dc00089017800030678008582550004003d0003
:100dd0000003fd008103fd008502ea008b854200cf
:100de000840f720002003b0060001000e0801800d9
:100df0006011b8000005eb007a28e1000a00390014
:100e000006007800c75ddd00f707b2008780750037
:100e10002d003700828171000a01780061056000b1
:100e20008180d1000080d3008502e900f9ff3b00fa
:100e3000060440008784480002003b006004140060
:100e4000e0841c000988a300070032008a81710039
:100e500082817100610164008904d1000884d3009b
:100e60008b05e800170037000978a30013003a004b
:100e70000b00e000130034008b05e9000804440077
:100e800089844c000a4474000978a3000d003a00dc
:100e90000b00e000070034008b05e9000804440063
:100ea00089844c0001003a000b0020000978a3005f
:100eb000f7ff32000001eb00020037008281710071
:100ec0000a017800ca0007000cf0a70001f0a0009a
:100ed000130137006420e10002003a00838f6c00a8
:100ee000130133000801be000200be000c013700f0
:100ef000889fbe008a9fbe008c1f7800f700070005
:100f0000fe00330003866c006450e1002e003200c6
:100f10006420e100330032006150e1002f00320014
:100f20006120e1003100320085855500eb07b000fb
:100f300009002000080420000500370008044400d0
:100f400089844c000a0031000603430087834b006c
:100f50000001530081815b00f8ff33000203be00f3
:100f60000800a0000804440089844c00f6ff390002
:100f7000c639dd0083017300010032001300200038
:100f80008904d1000884d3000998a3000500320029
:100f90000800a7000300a0008904d1000884d30042
:100fa0008b05e8008904d1000884d3000001eb0020
:100fb0000281d2008e00070001f0a1000cf0a70012
:100fc00001f0a000d60037006420e100d800320014
:100fd0000801be000200be00f7ff37006120e100fb
:100fe000d30032006000b800f3ff3700000020009b
:100ff00001f82700f0ff3700839f68000100e00040
:1010000002003d0060001000e08018000300e000d6
:1010100002003d0060011100e0811900fb000700a3
:101020004f00e00002003b0060001000e08018006c
:1010300000000600f4ff2f00340237000003be005a
:10104000910007006011b8000470a70007f0a1002c
:1010500007f8a30017003a006509b1000d0032003f
:101060000d003500860220000628e100030035004f
:10107000030028006000b8000200050000004000e6
:101080008180480002014900838149008502e9000e
:10109000faff3a0000000600f88f42000500340015
:1010a0008100d1000080d3008502e800fcff3a00f7
:1010b000000006006011b8008000eb000000050091
:1010c0000001be00700007000470a70003f0a1003b
:1010d00003f8a30013003a006509b10010003200c4
:1010e000090035006928e1000200350001002800f0
:1010f0000000050000004000818048008502e900f2
:10110000fcff3a0000000600f88f420005003500a1
:101110008100d1000080d3008502e800fcff3a0086
:10112000000006008000eb0000000500889fbe0064
:101130008a9fbe0000827000040271000482710068
:10114000260032000004be000200be006011b8009c
:101150006b092000950220000182cf000a003900af
:101160000541b1000082cf00070039000541b10000
:101170000982cf00040039000541b1000882cf0088
:10118000010039000541b100054252001200320051
:101190000a003b0082817100610164008100d1007e
:1011a0000080d3008984d3000884d3008b05e80035
:1011b0000442e800f7ff3a00070037000804440043
:1011c00089844c0000004800818048008b05e900bc
:1011d0000442e900f9ff3a00050007004f05be0090
:1011e0004f04be00000006006011b800cfff3700ba
:1011f00081002000618055000b003d000b002000a5
:1012000061fe2f000100e1001d00340082817100a9
:10121000610164008904d1000884d3000000e80063
:10122000faff3a00710020006100640003007000c2
:10123000020060000900320061044400e0844c00b8
:101240000988a500050032008b05e8006808e10068
:1012500002003a008904d1000884d300f20f200074
:101260000258e10005003d00c75ddd00f907b2004e
:101270008980750008007800000006000bf8270040
:101280008b00780000000500c70ade00f107b200fd
:10129000f50fb20008003200e1cf42000200320038
:1012a0000170a00024000500810f700001003200d1
:1012b0000408050044000500810f700002003a0098
:1012c000140005008502e9000000400081c04800cc
:1012d000fcff3b000170a000240005000004be00dc
:1012e000e9ff07000003be000405be000200be00c7
:1012f000e5ff0700844f7500000006000200be00f5
:101300006450e100050036006420e1000200360070
:101310000968a30001003a000800be000160a000b7
:101320004f0678004f05be004f04be0000000600c7
:10133000f0ff2f00f1ff2700f9ff3700889fbe0064
:101340008a9fbe008c1f7800e4ff0700ebff33008c
:1013500003866c006450e100240032006420e10048
:10136000270032006150e100220032006120e100dc
:10137000210032008b854200eb07b1000134b80038
:10138000003ab8000804420089844a00013ab800d3
:101390000030b8008880400009014a000400330092
:1013a0000000400081804800020149008b05e900ef
:1013b000c909dd0083017000010032001300200024
:1013c000c814de004814dd004709de001200b20038
:1013d000c808de000884700085ff070001f0a10046
:1013e0000cf0a70001f0a000cdff37006120e10064
:1013f000cfff32000801be000200be00f7ff370039
:101400006150e100fcff3a00c9ff37006022b800dc
:10141000060220000000d0008180d2000482d200a9
:101420008582d2000000a0000202520083825a008e
:10143000030031000202420083824a000000a10042
:101440000603e900f3ff3a0000000600efff070083
:101450000400be0000000600889fbe008a9fbe00f8
:1014600030044200b0844a0030054b0090854b00a8
:101470006000b1000898be000a90be000440e10080
:1014800005c8e10006d0e10007d8e1000200310004
:10149000680040001008e8004f05be004f04be0081
:1014a00000000600889fbe008a9fbe0010047800de
:1014b0009004900020059000b0059000041854009e
:1014c00005985c0006185d0007985d00110020007b
:1014d0000440e10005c8e10006d0e10007d8e100c2
:1014e000010039008000eb00108810004f05be009d
:1014f0004f04be00000006001200fa00889fbe00e4
:101500008a9fbe008c9fbe00e0b79f00f1b79f008e
:1015100082bf9f0093bf9f000605be000404be006b
:101520000000eb00d0b79f00c0b79f00b0b79f008e
:10153000a0b79f0090b79f000006eb005fb1970037
:10154000cfb09700820141003fb097000200e00059
:1015500004003d00370007007e805700beff0700f3
:1015600003003700330007007e805700cdff0700df
:10157000dfb697000d00e0000c0035006fb2970059
:10158000ffb297000fbb97009fbb97001000200091
:10159000010020006011b800000272008182720018
:1015a00002037300838373001b0007000c06e8002e
:1015b00001042000810f5600e0ff3a000d00e0001a
:1015c00004003d000802be000a03be007e805700f2
:1015d000a1ff07005fa897000000e00005003a00a7
:1015e0001fb29700afb297003fb39700cfb39700f9
:1015f000090007006fb09700ffb097000fb9970080
:101600009fb997004f06be004f05be004f04be00b5
:101610000080fa000000060001000700000006003c
:10162000a4b79f00b5b79f00c6b79f00d7b79f006c
:10163000000006004f09de0082817100b3b79f00f1
:101640004f01de008180400082807000a1b79f00c2
:101650008fb097004f09de000000400002007000cc
:1016600090b79f007fa897004f01de008180400067
:101670008280700081b79f000d0007004f3ade00a6
:101680000000400004007000f0af9f000800070059
:101690000402420085824a0006034b0087834b0008
:1016a000dfff07000802be000a03be0000000600bc
:1016b0002fb29700bfb297004fb39700dfb39700e8
:1016c00000000600881f780018002000881f78009e
:1016d00089ff07008f87e9004f04780000000600ab
:1016e000801feb0084ff07008f87e90000000600e1
:1016f000889fbe008a9fbe00e00f5000e08f580018
:10170000e00f5900e08f59000c003d006044b80024
:101710006055b8000000540081805c0002015d004b
:1017200083815d00180020001500070008003d00bf
:10173000180007000004eb00050037000004eb0070
:101740000f00070002003d001200070018002000f3
:10175000dcff07000800e000060032006022b8004d
:101760006033b8000000520081805a0002015b0023
:1017700083815b004f05be004f04be0000000600e1
:10178000e00f5200e08f5a00e00f5b00e08f5b003b
:10179000000006006044b8006055b8000402540020
:1017a00085825c0006035d0087835d000000060003
:1017b000889fbe008a9fbe008c1f7800e00f5000fb
:1017c000e08f5800e00f5900e08f59000d003d00f8
:1017d0006044b8006055b8000000540081805c008f
:1017e00002015d0083815d001c0020000820e100f3
:1017f00009a8e1000ab0e1000bb8e1000d003d00ce
:10180000080037000006eb00e00f5200e08f5a009e
:10181000e00f5b00e08f5b0006003d006044b80015
:101820006055b8000402540085825c0006035d0028
:1018300087835d00aaff07000c00e000060032006d
:101840006022b8006033b8000000520081805a0066
:1018500002015b0083815b004f0678004f05be00ec
:101860004f04be0000000600889fbe008a9fbe0095
:101870008c1f78000006eb00e00f5000e08f58004e
:10188000e00f5900e08f590007003d006044b800a8
:101890006055b8000000540081805c0002015d00ca
:1018a00083815d001c002000e00f5200e08f5a0091
:1018b000e00f5b00e08f5b0007003d006044b80074
:1018c0006055b8000402540085825c0006035d0088
:1018d00087835d000c00a200270007000c00e000d9
:1018e000060032006022b8006033b80000005200e9
:1018f00081805a0002015b0083815b004f06780003
:101900004f05be004f04be0000000600889fbe00c9
:101910008a9fbe00841f780070fe07004f00780089
:1019200011003300f0ff2f00838f6c0006003b0096
:10193000040565000a00a7000800370009f0a600aa
:101940001000200008003700820f5400838f5c00d5
:10195000030039001000200001003e0000002000bc
:1019600009f0a7000000ea004f05be004f04be00ca
:101970000000e00000000600889fbe008a9fbe00b5
:101980008c9fbe000404b8000506b8008904460018
:1019900060854e000606b8000a054600e0854e0048
:1019a0000706b8008b054600040eb80089044600ff
:1019b0000a854e00e0854d00050eb8000a05460078
:1019c0008b854e00060eb8008b0546000416b80045
:1019d0000a0546008b854e000516b8008b054600ab
:1019e000041eb8008b0546000800be000a01be00b8
:1019f0004f06be004f05be004f04be0000000600ab
:101a00008001780002003700815978000201e90066
:101a10000200e000fcff3a00000006000200370070
:101a20000204e0000b00320081017800000278001f
:101a300030417800b14f5100f9ff32001000200012
:101a400014427800934f5200030031000080eb00f5
:101a5000000006000000eb00000006000001780016
:101a6000b1417800035978000304e000fcff3a001c
:101a70000000060080007800010178003104e000d9
:101a8000fdff3a00000051000000060080017800d0
:101a900002003700845978000201e9000200e000ea
:101aa00006003200314278000404e000f9ff3a00f9
:101ab000020037008059eb000201e9000200e0005b
:101ac000fcff3a0000000600889fbe0081047800f9
:101ad0000000e00002003a00d84681000100370013
:101ae000000478000800be0032050700000444002e
:101af0001804e00004003a00808d2200d0468900de
:101b00000004eb00070037000800be0018050700be
:101b1000000044001004e000010032000058eb0017
:101b2000d0468900080078004f04be00000006007f
:101b3000ee874700889fbe008a9fbe008c9fbe0034
:101b40008e1f7800f0b79f000106780082057800ac
:101b500000047800080578000a047800b846780088
:101b60000d00fb00d60207000000e000f9ff3a007c
:101b7000d0c2b30080cf56000300320000c0e9009d
:101b800080cf560002003a000a05e8000100370045
:101b9000804678000b00e00005003500e18f55001d
:101ba0000300320040022000808f55000600340000
:101bb0006044b8000c00e000700032007fb0970075
:101bc000000e78006d0037000b00e0000e003200c0
:101bd000f08f55001a003a0000c3b3009a4f10006e
:101be00017003a001a40900081c7b300814f50009f
:101bf0000300320081c5b300814f500010003a004d
:101c00000a85e8000e003700ab00200000c3b300d7
:101c10009a4f10000a003a001a40900081c7b300a2
:101c2000814f5000040032008b00200081c5b300ba
:101c3000814f500002003a000a85e8000b012000a5
:101c40000a007800000278000400780001c3b300a5
:101c5000b0cf1000fbff3200040778006044b800ea
:101c6000b4b79f000d003700417a22008140500038
:101c7000c1ef9f006159b9000800be00900c070039
:101c80004fea97000401fb00cf91de00c8b79f0028
:101c9000d9b79f0002044000838448008e02780078
:101ca0003e00fb0085bf9f008d0207000b017800fe
:101cb00080007800407a22009c0407008fba9700c9
:101cc0000000e000e8ff3a003fb29700850f5500a2
:101cd00005003a006044b8000c00e0002700320024
:101ce000ffb297002400370004825200907c22004b
:101cf0000b0040001000fb000002520017003300f0
:101d000011003a004fe997000200fb00cf80de008f
:101d10000000540081805c00800f5400818f5c00c3
:101d2000090039006159b90085bf9f00b7fd070060
:101d30008fba97004fb19700dfb19700820f500024
:101d4000838f58000500320020022000e046890001
:101d50000084eb008084eb0005003700d0c2b300a4
:101d600080cf560002003a0060041400e0841c009a
:101d70000c00e00001003200050e78000800be00f3
:101d80004f0778004f06be004f05be004f04be004f
:101d9000ef00b10000000600881f78000204780000
:101da000080178006b040700080040004f04780029
:101db00000000600881f7800000478008201780087
:101dc0000101780088007800c0ec200006000700c0
:101dd0000000e0000200350000044400004ceb006d
:101de0004f047800000006006200fa00889fbe00e1
:101df0008a1f7800000578008104780002047800ca
:101e00008300780080f92f000f0040004e02070089
:101e10009a979f00a9979f000000eb00b09f9f003a
:101e20001885fb008a04fb000a05ea004f55de0016
:101e300050022000808f54000d003200e10f550049
:101e40000b003a000a017800880078002f90970074
:101e50009f91970003000100a0979f000000e00001
:101e60008e0032003f9897000000e800b09f9f006e
:101e70000a04440050022000808f54000400320005
:101e80000900e000e6ff3a003f9897008400370021
:101e90000000eb00909f9f00809f9f00f0979f00a5
:101ea000e0979f00d0979f00c0979f0007003700e2
:101eb000418822000100500000004000818722007c
:101ec000808040005f98970011007000d09f9f00b5
:101ed0008804780009047800384578008a00fb00ff
:101ee000408822000b0207000000e000f0ff3a00eb
:101ef000a1c2b300814f55000e003a00cf88970071
:101f00000180e900c08f9f0010007800c09f9f00f3
:101f10000000e00005003d000000ea00c09f9f00b7
:101f20005f9897000020a000d09f9f000904e80060
:101f30000f003700c09f9f000000eb000500370036
:101f4000f2ff2700820f500002003200ea00b900c1
:101f5000008040000904780088047800b900fb0084
:101f60000103b100e98f5000f5ff3600c09f9f00cc
:101f7000e0c2b300984f1000020032000080eb0076
:101f800019003700a0c2b300d84f100007003a0074
:101f9000cf8897000180e900c08f9f001000780073
:101fa000a09f9f000804e800100037000000eb002d
:101fb000a09f9f008800780005003700f3ff2700ee
:101fc000830f500002003200ea00b9000000410017
:101fd00001047800880078003101fb000203b100a1
:101fe000e90f5100f5ff3600a09f9f00984478004c
:101ff0008900fb0000872200c60107000000e00006
:10200000020032000804e800010037008044eb00c1
:10201000c97f9f0080c6b30080cf540004003a00ff
:1020200098cf14000a003a006640500006003700be
:10203000c0c6b30080cf540005003a0098cf14000a
:1020400003003a0065404000c07f9f000804e8009c
:10205000e3fb2f008f8141001841780081f92f00a8
:102060008f804000a0f92f000f00400010000700f3
:102070000000e00009003a00e1fb2f008f804000e3
:10208000a0f92f000f004000420707000000e00009
:10209000020035000804e80061ff37000080eb0013
:1020a0004f0578004f04be000080fa0000000600d3
:1020b000889fbe008a1f7800000478008244780060
:1020c0000305780070c6b30080cf540021003c00a7
:1020d00000c0e90080cf5400e6003d00724050008f
:1020e00080cf5400530132000d003c006c40500082
:1020f00080cf540066013c0000c0e90080cf54004e
:10210000dc003d0050c2b30080cf54005d013200be
:102110007c40400080cf54005d013a00d50037007c
:1021200010c6b30080cf5400d200320004003c003f
:102130006940500080cf540055013a0073003700c9
:1021400030c6b30080cf5400180032000040e800d1
:102150000900370000c7b30080cf540027013200c8
:1021600008003c0000c0e90080cf5400f0003200bd
:1021700066003c006540500080cf540044013a00a6
:102180001000370050c7b30080cf54005f0032000a
:102190006340400080cf54005c0032006540500036
:1021a00080cf54003a013a00220137001181e90042
:1021b000820878007800900000054500124d7800f4
:1021c0003901370028609000c2c6b300824f50002a
:1021d00008003a001101780064005100800878007e
:1021e00090009000100078004f89de008201780096
:1021f0001600370012c7b300824f500003003a00a8
:10220000110278006800520005003700a2c6b30032
:10221000824f500008003a00910278006880520016
:10222000800878009000900020019000b00190009c
:1022300010007800050037001180e9008008780060
:1022400010007800cf80de006109b900009cbe005c
:102250000294be002862900085c6b300854f5200ec
:102260000d00320025c6b300854f520004003a002d
:102270000000fb00cf80de006109b90008003700d4
:1022800045c7b300854f520003003200e6c242004a
:10229000854f520004003a00cf80de006109b9008a
:1022a000009cbe000294be001802780098029000c4
:1022b00028039000b803900078009000e00f5200cf
:1022c000e08f5a00e00f5b00e08f5b0003003d00f1
:1022d00080004500d2c2b3000a0037008810900089
:1022e0000118a3000300320080004500b2c2b30011
:1022f000040037000108a3005900320080004500a7
:1023000002c2b30082487800530037002860900072
:10231000c2c6b300824f500009003a001103780092
:10232000640053008008780010027800900290004a
:102330006033b8000400be000601be00160037007e
:1023400012c7b300824f500003003a009102780098
:102350006880520005003700a2c6b300824f5000cb
:1023600008003a00110378006800530080087800e4
:102370009000900020019000b001900010007800c3
:10238000050037001180e90080087800100078000f
:102390008000eb006011b800009cbe000294be00fb
:1023a0002862900085c6b300854f52000d003200b0
:1023b00025c6b300854f520004003a000080fb00a0
:1023c0008000eb006011b8000800370045c7b3007b
:1023d000854f520003003200e6c24200854f520092
:1023e00004003a008000eb006011b800009cbe00c1
:1023f0000294be00081090000038a30018003200bc
:10240000180078009800900028019000b801900012
:10241000e00f5000e08f5800e00f5900e08f5900a6
:102420000f00320080c7b30080cf54000300320099
:1024300080c5b30080cf540009003a0078009000b6
:102440008000450002c3b300824878000000e80025
:1024500080004500894878000000e800700498007a
:1024600078009000000545006a04980089407800d3
:102470006d00370028619000c0c4b300804f510048
:1024800008003a00910378006880530080087800c3
:102490009000900020019000b001900010007800a2
:1024a00006003700110178006400510080087800b0
:1024b0009000900010007800ba090700009cbe0050
:1024c0000294be00b8009000780090000100e00087
:1024d00003003d0080004500d2c2b3000a0037006f
:1024e000881090000118a30003003200800045000e
:1024f000b2c2b300040037000108a3000500320097
:102500008000450002c2b300824878000000e80065
:102510007004980078009000000545006a04980057
:102520008940780008007800b20207006000370098
:1025300028619000c3c6b3001180e900834f5100a9
:10254000220032000a003c00e4c15100834f5100d8
:102550002500320083c1e800834f51001300320090
:10256000e8c15100834f51001e003a000a003700b5
:1025700043c7b300834f51001b003200e6c1410046
:10258000834f510018003200e9c15100834f5100c0
:1025900014003a0005003700800878001000780029
:1025a000485c9000084878004100370080087800b7
:1025b00010007800680a9000cfa2de00612bb900fd
:1025c0000498be000690be003900370080087800ed
:1025d0001000780068099000cf91de000288be00ec
:1025e000330037001180e90080087800100078007f
:1025f000680c9000080878002d0037001180e90071
:102600008008780010007800cf80de006109b900f2
:10261000009cbe000294be007800900000054500ba
:102620006a04980081c7b300080078009c04070082
:102630001f0037001180e90080087800100578003d
:102640006a049800d80c90000900e00004003d00e6
:102650000a00780007fd07008004780007003700b3
:10266000090178008000eb000a0078002f020700c3
:102670000000e000010032008a045000190c9800ac
:102680000b0037007800900000054500050037007a
:1026900078009000000545000904e00001003a00c0
:1026a00059c2b300094d78000000e800700498009a
:1026b0000000eb004f0578004f04be00000006004c
:1026c0006900e100040035006d00e1000300340002
:1026d0000002b100010032000000050010000500fa
:1026e000800078001104b100030035009101b100b1
:1026f00001003c000050a00000000600f0468100f0
:102700000000e0000100320000000100c08d220046
:10271000000006008001eb00030037008301e800a1
:102720000404e0000500320003014000124278007a
:10273000814f5200f9ff3a00010037000001eb0021
:102740000200780000000600010878000000060082
:10275000889fbe0000047800180090008204780072
:10276000808f540001003600800478001800780043
:1027700009017800f7010700188c44001800900048
:102780008904500019049800080078004f04be0026
:10279000000006000400fa000100e00003003a0017
:1027a0000f80e900e0bf9f0002003700e0bf9f00fc
:1027b0008100e900f1bf9f00ec8157002fb997001d
:1027c000e4805700803a210004000700efb897002a
:1027d0008048eb000080fa00000006006200fa006a
:1027e000889fbe008a1f7800000578008104780069
:1027f000020478008300780080f92f000f00400069
:10280000d1ff07009a979f00a9979f000000eb0057
:10281000b09f9f001885fb008a04fb000a05ea00b0
:102820004f55de0050022000808f54000d00320012
:10283000e10f55000b003a000a017800880078008b
:102840002f9097009f91970003000100a0979f0091
:102850000000e0008e0032003f9897000000e80082
:10286000b09f9f000a04440050022000808f540053
:10287000040032000900e000e6ff3a003f989700ac
:10288000840037000000eb00909f9f00809f9f0016
:10289000f0979f00e0979f00d0979f00c0979f0000
:1028a00007003700e18922000100500000004000cd
:1028b00021892200808040005f98970011007000fd
:1028c000d09f9f008804780009047800384578007c
:1028d0008a00fb00e08922008eff07000000e00074
:1028e000f0ff3a00a1c2b300814f55000e003a003c
:1028f000cf8897000180e900c08f9f00100078000a
:10290000c09f9f000000e00005003d000000ea00bd
:10291000c09f9f005f9897000020a000d09f9f005d
:102920000904e8000f003700c09f9f000000eb0083
:1029300005003700f2ff2700820f5000020032002e
:10294000ea00b9000080400009047800880478009b
:10295000b900fb000103b100e98f5000f5ff36001c
:10296000c09f9f00e0c2b300984f100002003200e9
:102970000080eb0019003700a0c2b300d84f100050
:1029800007003a00cf8897000180e900c08f9f00c0
:1029900010007800a09f9f000804e8001000370096
:1029a0000000eb00a09f9f00880078000500370022
:1029b000f3ff2700830f500002003200ea00b90045
:1029c0000000410001047800880078003101fb001c
:1029d0000203b100e90f5100f5ff3600a09f9f00f0
:1029e000984478008900fb00a088220049ff070076
:1029f0000000e000020032000804e8000100370097
:102a00008044eb00c97f9f0080c6b30080cf540094
:102a100004003a0098cf14000a003a0066405000c3
:102a200006003700c0c6b30080cf540005003a004e
:102a300098cf140003003a0065404000c07f9f001b
:102a40000804e8001801fb00e3fb2f008f81410020
:102a500081f92f008f804000a0f92f000f00400067
:102a6000100007000000e00009003a00e1fb2f0021
:102a70008f804000a0f92f000f004000c504070020
:102a80000000e000020035000804e80061ff3700a4
:102a90000080eb004f0578004f04be000080fa0074
:102aa00000000600889fbe008a9fbe00e4c6b300f7
:102ab000844f5100ce00320010003c006b425200a7
:102ac000844f51001800320005003c0054c2b3008e
:102ad000844f51000601320084c5b3000f00370057
:102ae00044c6b300844f51001500320065424200d5
:102af000844f510001013a001100370004c7b300b0
:102b0000844f5100ed0032005f0035006542420005
:102b1000844f51005c00320063424200844f5100f8
:102b2000f6003a00580037001181e9008208780069
:102b3000f00090008181410092497800f500370053
:102b400020629000c5c6b300854f520008003a00cd
:102b50009102780064825200840878009402900008
:102b6000140278004fabde008603780016003700b1
:102b700015c7b300854f520003003a0011047800d6
:102b80006802540005003700a5c6b300854f520007
:102b900008003a00910478006882540084087800a4
:102ba0009402900024039000b40390001402780073
:102bb000050037001182e9008408780014027800cb
:102bc000cfa2de00612bb9000498be000690be00c3
:102bd000a060900088c6b30088cf50000d0032007e
:102be00028c6b30088cf500004003a000402fb005e
:102bf000cfa2de00612bb9000800370048c7b30040
:102c000088cf5000030032006644440088cf500053
:102c100004003a00cfa2de00612bb9000498be0088
:102c20000690be00100278009002900020039000f1
:102c3000b0039000f0009000e00f5200e08f5a00c7
:102c4000e00f5b00e08f5b0003003d00018241006c
:102c5000d5c2b3000a003700001290000418a30088
:102c60000300320001824100b5c2b3000400370006
:102c70000408a300590032000182410005c2b300dc
:102c8000054a78005300370020629000c5c6b300a3
:102c9000854f520009003a00110578006402550082
:102ca0008408780014047800940490006055b800fb
:102cb0000802be000a03be001600370015c7b300a5
:102cc000854f520003003a00910478006882540056
:102cd00005003700a5c6b300854f520008003a0032
:102ce000110578006802550084087800940290006d
:102cf00024039000b403900014027800050037000c
:102d00001182e90084087800140278008002eb0048
:102d10006033b8000498be000690be00a06090002a
:102d200088c6b30088cf50000d00320028c6b3001b
:102d300088cf500004003a000482fb008002eb00c0
:102d40006033b8000800370048c7b30088cf500090
:102d5000030032006644440088cf500004003a006b
:102d60008002eb006033b8000498be000690be00fd
:102d7000801090000138a300180032001002780083
:102d80009002900020039000b0039000e00f5200ea
:102d9000e08f5a00e00f5b00e08f5b000f00320015
:102da00081c7b300814f51000300320081c5b300d9
:102db000814f510009003a00f0009000018241006b
:102dc00005c3b300054a78008100e8000182410094
:102dd000024a78008100e80071009800f00090003d
:102de0008181410063009800824078003e003700f6
:102df000a0619000c4c6b3001181e90084cf5100e6
:102e0000220032000a003c006442520084cf51008c
:102e10002500320004c2e80084cf510013003200c4
:102e20006842520084cf51001e003a000a00370069
:102e300044c7b30084cf51001b00320066424200f9
:102e400084cf5100180032006942520084cf5100f3
:102e500014003a00050037008208780092007800dc
:102e600040589000804878002c0037008208780095
:102e700092007800600a9000cfa2de00612bb900ba
:102e80008498be008690be00240037008208780037
:102e90009200780060099000cf91de008288be0029
:102ea0001e0037001181e900820878009200780046
:102eb0006008900080087800180037001181e90050
:102ec0008208780012027800cfa2de00612bb900e0
:102ed0000498be000690be00f00090008181410081
:102ee0006300980081c7b3006d0207000b00370034
:102ef000f00090008181410005003700f000900053
:102f0000818141000204e00001003a0052c2b30096
:102f1000824978008100e800710098000000eb0011
:102f20004f05be004f04be0000000600030037003e
:102f3000b0cf1000050032000201e90080017800e6
:102f40000200e000faff3a000000050003007800ec
:102f5000000006008001780002003700b1597800b7
:102f60000201e9000200e000fcff3a000000060058
:102f7000000178000700370086cf520002003a00b7
:102f80000080510000000600344378000604e00091
:102f9000f9ff3a0082017800b24278000504e000af
:102fa0000200320001027800f7ff37000080510074
:102fb0000000060000017800080037008102780058
:102fc000354378000604e00002003a00008051001a
:102fd00000000600864f5200f9ff3a008201780097
:102fe000324278000404e000f4ff3a00008051000f
:102ff00000000600cf04b000889fbe008a9fbe007c
:103000008c9fbe008e1f78000006780081467800f5
:103010001c0078009c0090002c019000bc019000e6
:10302000d0979f00e1979f00f2979f00839f9f009a
:1030300010c6b30080cf56001200320010c4b30097
:1030400080cf56000f0032005c0890000000e000c6
:1030500002003d0060002000090037000000e00091
:1030600008003a0070c6b30080cf5600030032005b
:1030700070c4b30080cf560002003a001000200058
:10308000500e98008c00780080fa2f000f0040004e
:10309000d9010700e20f50000f003a003000200075
:1030a000100e9800806d220011c6b30081cf56002b
:1030b00019003200e4c0400081cf560016003200f3
:1030c000c06d22008140e80081cf560012003a0016
:1030d000806d2200100037000000e0001400340072
:1030e00030002000100e9800006e220011c6b300c0
:1030f00081cf560008003200e4c0400081cf560066
:1031000005003200406e22008140e80081cf560069
:1031100001003a00006e2200ec009000b0487800f8
:10312000b06878001040780090409800ac013700fb
:1031300011c6b30081cf56000300320011c4b300a2
:1031400081cf56000e003a00ec00900002c3b3009d
:10315000825878006106980082c5b30013c6b30098
:1031600083cf560001003a0082c7b300825878002e
:1031700061069800fc0090008180e80071069800cc
:103180000000e00005003a00c0979f008001eb00be
:1031900022fb2f000f0141008d01370010c6b30044
:1031a00080cf56000600320010c4b30080cf560016
:1031b0009c003a00916f2200d1b79f0002003700b7
:1031c000826e2200d2b79f005c0890001b02200094
:1031d0000000e000010035008005e8000b05e80074
:1031e0006022b8006033b8005f909700ef909700be
:1031f0007f9197008f999700c10507000002780022
:103200001c0078009c0090002c019000bc019000f4
:103210000400e00001003d0003f0a200d0979f00f1
:10322000e1979f00f2979f00839f9f00cf919700a7
:10323000e4815100c3979f000040eb00a0779f00fe
:103240003efb2f000f07470031003700c20120006e
:1032500003002000a0fa2f000f004000ea0307003f
:103260005f909700ef9097007f9197008f9997005c
:1032700090b79f00a1b79f00b2b79f00c3b79f0050
:10328000670607000004be00670555004240a9001c
:103290000c0034008e0607000002be000203be00d0
:1032a0001fb09700afb097003fb19700cfb1970024
:1032b00001070700d0979f00e1979f00f2979f00ba
:1032c000839f9f00670747007000200005003700bc
:1032d0006f676400cc48dd004444de000884700061
:1032e000c4ccde00e00f5400e08f5c000500340029
:1032f0000000e900e10f4000f5ff3a00010037004f
:103300000067eb000000e900fdff3b006707470096
:103310000a00e000090034006022b8006033b80001
:103320005f909700ef9097007f9197008f9997009b
:10333000780507000000e000c4ff3c0032fb2f00ce
:103340000f014100020757008e0178008b0f5700d4
:10335000010034008b0178000300e0002b003500f1
:103360000040eb008e8f51000a003d0082fa2f00d2
:103370000f01410003004100b0489000f0c0b300cd
:10338000e7cf500003003c000040eb000100370095
:10339000810178008300e90034fb2f000f02420016
:1033a0000101420012427800804f5200f8ff3200c3
:1033b000ef4f500001003a000449e8000100e0002e
:1033c00007003d008301e800cf929700e4824200ad
:1033d000c5979f0022fb2f000f014100020037001c
:1033e00032fb2f000f0141008300410003007800f1
:1033f000040037004102fb00dfb297000482420064
:10340000944878000000e900faff3b005c08900057
:103410000000e000ee003d000300e900500e9800bf
:10342000eb0037005f949700ef9497007f9597002b
:103430008f9d97006022b8006033b8000800be007e
:103440000a01be002e0507000000e00005003d0057
:103450000bf0a200d8979f00e9979f00fa979f0072
:103460008b9f9f0070592700cf9097000088b9006c
:10347000026a280013002000dff6070064045000f1
:10348000c8979f0017003b0063041400c0ff2f0083
:10349000000464000800ea00c0979f005f90970056
:1034a000ef9097007f9197008f999700aa70220064
:1034b000090037000808a300050032001a0278004e
:1034c0009a0290002a039000ba03900004060700b5
:1034d0000884d100680545000800e000f5ff3c00c5
:1034e0001c0037000800e0001e003200c0ff2f0063
:1034f00000046400c8979f00aa7022006000b80012
:103500000200200003ff2300090037000808a30081
:10351000050032001a0278009a0290002a039000f7
:10352000ba039000ee0507000884d1006805450045
:103530000800e000f5ff3c000002be000203be00f0
:103540005f909700ef9097007f9197008f99970079
:10355000f5040700d0979f00e1979f00f2979f0026
:10356000839f9f005c0f900060c6b30080cf560021
:10357000040032006000200061c4b30081cf560017
:1035800002003a00cf9097006a8040000e0740008a
:10359000f30f5700010034003e01200000c3b300c8
:1035a000a0779f003bfb2f008f854500350037003b
:1035b0005fb09700efb097007fb197008fb9970089
:1035c000970507000004be00680757004240a900a5
:1035d00010003400be0507000002be000203be005a
:1035e0005fb09700efb097007fb197008fb9970059
:1035f000310607006022b80046782d0077192400b4
:10360000b7050700d0979f00e1979f00f2979f00b2
:10361000839f9f00e88545008a0020000801be00c6
:103620000c003700a400200005002000a0fd2f00a2
:103630000f004000930207005fa89700efa89700d3
:103640007fa997008fb1970004c3b3008465410040
:103650000001be00e00f5100e08f59000600340069
:103660000a05e900e10f4500eeff3a0002003700cd
:1036700000c3b300806578000a05e900fcff3b0049
:10368000e88545000e00e0000d0034005f909700d3
:10369000ef9097007f9197008f999700d0b79f0088
:1036a000e1b79f00f2b79f0083bf9f006022b80080
:1036b0006033b800970407000000e000bcff3c0046
:1036c00031fb2f008f804000818555004f9197007e
:1036d00067004100c0979f00020037008b05e9009a
:1036e0000000e900010178008200780003c3b30004
:1036f000b1cf1100f9ff3200c0979f00dc099000a4
:1037000061c6b30081cf56000300320061c4b3002c
:1037100081cf560002003a000000e800090037009f
:103720001000200051c6b30081cf560005003200c2
:103730000d40780050c4b2000080fb000000e9009a
:103740004f00de00830140008b8f510001003400e8
:103750008b0178000300e0001d00350000c3b300ba
:103760008b8f510006003d0003024100694040007c
:1037700041c3b30094cf100001003c0069405000e9
:103780008300e900810041000100370084017800d6
:103790000302e90001037800a142780080cf5200c3
:1037a000faff320091c3b300814f500001003a008c
:1037b000054be8000400e00005003d000201e900bf
:1037c0008301e8004f9297000402e800c4979f002d
:1037d0004f9297008d4078000c0078000503070099
:1037e0004f0778004f06be004f05be004f04be00d5
:1037f000cf04b10000000600889fbe0000047800de
:10380000e68440001900d0004500de00f27f200071
:10381000820f500010003a00000ceb009904780071
:103820006f816400200020001b003a0021019000fd
:103830000200e00018003a00110190000200e000d0
:1038400015003a00100020001100e00012003200c4
:1038500020002000100037000000e00004003a00c3
:10386000010078001c0207000000e00008003c0096
:10387000f20028001901610001fe2300810c710093
:1038800021c02f00010c40000080eb000200370037
:10389000000ceb000000eb004f04be00000006002f
:1038a000fc874700889fbe008a9fbe008c9fbe0099
:1038b0008e1f78000006780080c5b30080cf5000ce
:1038c0000a0032007740400080cf50000a003200ea
:1038d0006940400080cf50000b003200f08522008c
:1038e00080bf9f00ae0020000a003700e284220063
:1038f00082bf9f0006003700f385220083bf9f0030
:103900008e00200003003700f485220084bf9f0052
:103910000e0120001c0278009c0290002c039000f5
:10392000bc0390000605be000404be0040c6b30000
:1039300080cf5000030032006540400080cf50002f
:103940000b003a00e00f5200e08f5a00e00f5b00de
:10395000e08f5b0006003d006000b8006011b80019
:1039600004045000858458000605590087855900d5
:10397000e80f57000400320040002000f00f57000d
:103980003c003a000100370030002000e00f5400f6
:10399000e08f5c00e00f5d00e08f5d0004003a0006
:1039a000dc0890008d0120000100e00007003200db
:1039b0008e00e900888060008fba97008180420005
:1039c00091407800f1ef9f007d0120008000780099
:1039d0008100e900050033008b05d1000a85d30082
:1039e0008984d3000884d300f9ff3700089ebe0005
:1039f0000a96be00130037008d06e9008e00e9002c
:103a0000848060000fb99700810041001141780067
:103a100083fd2f008d81410082f7790080017800bd
:103a20008301e900050033008783d1000683d300ba
:103a30008582d3000482d300f9ff3700049ebe00c4
:103a40000696be001c0278009c0290002c03900099
:103a5000bc039000e00f5200e08f5a00e00f5b00c3
:103a6000e08f5b00930034000d00e000e2ff3c00bb
:103a7000900037002c60900081c6b300814f500049
:103a80000b00320006003c000004e0000800320099
:103a9000e6c05000814f500052003a000400370049
:103aa000c1c6b300814f50004e003a0023003700da
:103ab0000800e00004003a005c0890008d0120003e
:103ac0000000e00007003200110009000e84d80059
:103ad0000fba97000100420010407800f0ef9f00fd
:103ae0007d012000110009000e84d8000b00370072
:103af000110009000e04d8008d06e9008e81b9007e
:103b0000020454008fb89700088440009841780060
:103b100082fd2f000d0141008377790000047800b9
:103b20000800e000020032000d00e000f0ff3c0061
:103b3000cfc4de00614db90027003700e00f54000c
:103b4000e08f5c0004003a005c0890008d012000ca
:103b50000000e000080032006171b9000800be00fa
:103b60003af607000fba97008000420091407800b3
:103b7000f1ef9f007d0120006171b9000800be00d7
:103b800022f607000c0037006171b9000800be0082
:103b900019f507008d06e90080f1b9000204540010
:103ba0008fba9700088442009841780082fd2f0068
:103bb0000d014100837779000004be00e00f500042
:103bc000e08f5800020032000d00e000eeff3c00e4
:103bd0004fcdde008a057800089ebe000a96be0022
:103be00034003700e00f5400e08f5c00e00f5d0010
:103bf000e08f5d0004003a005c0890008d01200019
:103c00000000e0000a0032006172b900612bb900c7
:103c10000800be000a01be00b1f607000fba970007
:103c20008000420091407800f1ef9f007d0120006c
:103c30006172b900612bb9000800be000a01be0024
:103c4000a0f607000e0037006172b900612bb900c1
:103c50000800be000a01be00a5f607008d06e900b7
:103c600080f2b900040454008fba9700088442001f
:103c70009842780084fd2f000d02420085777a007b
:103c8000009ebe000296be001c0478009c049000ba
:103c90002c059000bc059000e00f5400e08f5c0004
:103ca000e00f5d00e08f5d00020034000d00e000d9
:103cb000e5ff3c00e80f570010003a000c109000a0
:103cc0000038a3000d003200f78f560006003e00ba
:103cd00080fd2f000d004000ef40780000c3b300ce
:103ce00080cf50000500320002c3b30071fd2f00e9
:103cf0008d8040008d06e90082f7780078811600fb
:103d0000120e98006c00900083fd2f008f814100ff
:103d10008d8041008ffc07001c089000dc0890009b
:103d2000810f500006003d0000805000000e9800fa
:103d30000c1090000040a100001698000f00370002
:103d40000100e0000d003d008c109000f480600048
:103d5000f08f500009003a007c099000fc009000b0
:103d6000810051000c0990008280500000805000ba
:103d70004240a90001003400000e98004f0778006f
:103d80004f06be004f05be004f04be00cf01b1007c
:103d9000000006000400fa00889fbe008a9fbe0053
:103da0008c1f78000004780001067800f80d900060
:103db00078009000808555000808900080855500a7
:103dc00018089000808555002808900080855500cf
:103dd000380890008085550048089000808555007f
:103de0000002220090bf9f0000032300a0bf9f009d
:103df000081090000028a30015003a000b00e00016
:103e0000130034000b0578008a047800e20f550097
:103e10000100360029002000c80190000901780047
:103e2000ee805700580090000300010050049800f5
:103e30000000e0008c00320068089000090040009b
:103e4000600c9800090555004240a900eeff3c00b7
:103e5000780190000200e0000c003400c8019000de
:103e60008c00780058009000030001005004980076
:103e70008080eb000000e0007c003200e808900049
:103e80007800900000804000600c9800880c900042
:103e90000900e0001100340009057800e28f5400a9
:103ea000010036002a002000c80190000a017800b5
:103eb000ec80570058009000030001005004980067
:103ec0000000e00068003200680890000a0040002e
:103ed000600c98008a845400edff370018099000a8
:103ee0000200e0000c003400c8019000e8009000df
:103ef0005800900003000100500498008080eb00ff
:103f00000000e00059003200e80890001808900016
:103f100000804000600c9800a80c90000900e000b0
:103f20001100340009057800e28f540001003600ca
:103f30002a002000c80190000a017800ec80570098
:103f40005800900003000100500498000000e000b9
:103f500045003200680890000a004000600c98009c
:103f60008a845400edff3700380990000200e00019
:103f70000e003400e8009000180890008080400097
:103f8000c801900058009000030001005004980000
:103f90008080eb000000e00034003200e808900070
:103fa0003808900000804000600c9800c80c900019
:103fb0000900e0001100340009057800e28f540088
:103fc000010036002a002000c80190000a01780094
:103fd000ec80570058009000030001005004980046
:103fe0000000e00020003200680890000a00400055
:103ff000600c98008a845400edff37000810900090
:104000008000eb000028a300180032000b00e00045
:10401000160034008b04780009057800e28f540004
:10402000010036002a002000c80190000a01780033
:10403000ee805700580090000300010050049800e3
:104040000000e00008003200680890000a0040000c
:10405000600c98008a8454004240a900eeff3c00a6
:104060008000eb00010037008080eb000100780049
:104070004f0678004f05be004f04be000080fa00d6
:1040800000000600881f78008a9fbe008c9fbe003b
:10409000000478000205be000406be000401be0054
:1040a0000a00be00d4f30700008cbe000c01be0065
:1040b000830307000005550081855d002a049800f0
:1040c0003b049800080078004f06be004f05be0074
:1040d0004f04780000000600e6004000110178005f
:1040e00005002800850261006f01610082087800e8
:1040f000020032001200200011003700a0019000e1
:10410000120020000300e0000d003a009001900032
:104110000300e0000a003a001000e00008003a0046
:10412000360037006403400096087800800178006c
:10413000530b780090097800040878007001510052
:10414000110278000400e000f6ff3200130037008f
:1041500064024000140378004f33de008381410085
:104160008308730080017800d3037800cf3bde0022
:104170001403780006034300068a730013027800d4
:1041800004024200100378004f33de0086097200fb
:1041900090017800038841000201e9009101780054
:1041a000ef8f5100eaff36001000370080017800e1
:1041b000530378004f33dd001002d1000408730070
:1041c0006402400094037800cf3bdd001303d1006c
:1041d00086897300110378004f33dd009401d1000c
:1041e000030a73009108d1000201e80091017800f0
:1041f000ff8f5100edff3e00ef8861009188720053
:1042000002007800000006000400fa00889fbe004b
:1042100000047800e6044400190078008000d00013
:10422000c508de00f47f2000848f50000e003a00a5
:10423000ef006000200020006b003a00a800900012
:104240000100e00068003a00980090000100e000e2
:1042500065003a00100020001800e0006200320003
:1042600020002000600037000100e0000a003a0052
:1042700008007800c2bf9f00d3bf9f0096ff0700d1
:10428000800078000000eb004fb99700dfb997007d
:104290000100e00054003c004f88de000281400035
:1042a00083014800e07f2000800f5100e08f59001b
:1042b0000d0034001900e00004003d006000b8006b
:1042c0000200200003ff2f00030037006000b80049
:1042d0000200200003ff2700009cbe000294be00e5
:1042e0001000200040003700e00f5100e08f59001f
:1042f000050034004411dd00f000280019006000c2
:10430000800c710037003700190078000400280085
:10431000040260006f0060000040a000800c780084
:10432000d0fc2f00f1ff2f00800f5100818f59002a
:1043300006003d00840c78000000eb00200498008b
:1043400010049800000ceb00270037006f014100bb
:104350000600370008007800500c7800e4004400a4
:104360001108780099087800800ceb00700051006b
:104370007001410001fe2f0082804000ef8f40005d
:10438000f4ff35000000ea001500320088007800d4
:1043900070011000d1027800822add0098017800b7
:1043a0008019de00038c72006404440098027800d7
:1043b000822add00910178008019de008388720076
:1043c000990078000209dd00980078008008de007e
:1043d000010c7100990078000008de00800c780064
:1043e000990c72000080eb004f04be000080fa00c0
:1043f00000000600f0874700889fbe008a9fbe002d
:104400008c9fbe008e1f78000004780081447800e5
:104410000205be00040678000b00e00002003c002c
:104420001b0020002a8e220060c6b30080cf5400fb
:104430000e00320060c4b30080cf54000b00320085
:1044400070c6b30080cf54000300320070c4b300c4
:1044500080cf54009d003a00e40f460083003500f1
:1044600058089000800f560080003d000c06e800c0
:1044700060c6b30080cf54001000320060c4b300a7
:1044800080cf54000d003200081090000038a300c7
:1044900004003a0058089000808f550001003d004c
:1044a0005b0c9800580890000c005000500c9800cd
:1044b00002003b000000eb00500c980098089000b0
:1044c000680090000c00e00028003c000100400063
:1044d00002c3b300024878008100e800110c980084
:1044e000580890000000e00003003c000810900015
:1044f0000038a30006003200680090000100400070
:10450000e2c2b300024878008100e800110c980074
:10451000580890008c00ea00810f500001003d0017
:104520000006ea008c00ea00210c98000006460014
:104530005c0c98008b0f5600010034000b067800cd
:104540003c0c9800e80090001808900000804000a3
:104550000c0178008a0078007efa07005808900065
:104560000c0650004c0c9800c20037008c8f550090
:1045700019003d00010040000b0178008a0078001e
:1045800074fa07001808900000804500100c98008d
:104590008b0556002b0c9800d80890000100e00015
:1045a00003003c00881090000138a300070032008f
:1045b000e800900000804000e1c2b30001487800ac
:1045c000380890000000e800300c9800580890006f
:1045d000400c9800a7003700010040000c01780053
:1045e0008a0078005bfa0700180890000000460077
:1045f000100c98008c855500d80890000100e00050
:1046000003003c00881090000138a300060032002f
:10461000e800900080804000e2c2b3008248780049
:104620000000e800100c980058089000808f55009a
:104630000100340080057800e80090001808900020
:10464000008040008c0045000b01780041fa070013
:10465000180890000b004000100c980058089000bb
:104660008b0550002b0c98008200370070c6b300f9
:1046700080cf54000300320070c4b30080cf5400d8
:1046800012003a0058089000808f550004003d0049
:10469000081090000038a30001003a005b0c98005d
:1046a000580890000000e900500c980002003b0000
:1046b0000000eb00500c980070c6b30080cf54008f
:1046c00009003a0059c6b3000c00370010c6b30009
:1046d00080cf54000600320010c4b30080cf5400d5
:1046e00006003a000400370059c4b3000300370045
:1046f00009c7b3000100370009c5b30018089000ce
:10470000e8009000808040009a4878000000e800af
:10471000100c9800d80890000100e00003003c0055
:10472000881090000138a30006003200e8009000d5
:1047300080804000e2c2b300824878000000e800b8
:10474000100c9800580890000000e00010003400a1
:104750008b05e900808f550001003400800578004a
:10476000e800900018089000008040008a00e800ef
:104770000b017800f7f90700180890000b004000c3
:10478000100c9800580890008b0550002b0c9800d6
:10479000e800900018089000008040000958780058
:1047a0000005e8000c00e00004003500b1c2b300d1
:1047b000014878008a06780004003700d1c2b300af
:1047c000014878008a0678000c06ea00fd8557004b
:1047d0000007eb0009003700a20020008c007800e1
:1047e000728057003b0007007fb097008fb897009a
:1047f000816d7800000678000e07e8000c00e000ec
:10480000f5ff3c00e10f570013003c0050c6b30019
:1048100080cf54000300320050c4b30080cf540056
:1048200003003a008a06780000c3b300805e780077
:104830000e00e00008003a0000c3b300805e78007c
:10484000050037000e07e900fc8057000e8040008d
:1048500001c3b30090de40000e00e000f9ff3c0011
:10486000e800900018089000008040008086560004
:104870003d0c98000810900074006000f00f50008c
:104880000e003a00980890007800900000804000e8
:10489000a808900001004000b80890000100400006
:1048a000c808900001004000f8089000810f5000f7
:1048b00002003d0000805000000c98004f07780077
:1048c0004f06be004f05be004f04be000f01b100f1
:1048d0000000060080027800010378001100090042
:1048e0000203d80080017800830a78008299b90019
:1048f0008200530091029800050078000000060035
:104900008f1fd100f20107008f87e9000000e0004f
:1049100000000600809feb00ed0107008f87e90093
:104920000000e000000006002800fa00889fbe009a
:104930008a9fbe008c9fbe0003866b00800007002c
:104940006400e100440032006408e1004a003200e3
:104950006100e100460032006108e10049003200d8
:10496000ec0647006000b8003d02be003d03be00fb
:10497000f48657006011b8003d04be003d05be003e
:104980007d0320000b0037000000a0008d06e90029
:10499000130032000402420085824a0006034b00e5
:1049a00087834b00000040008180480002014900dd
:1049b000838149000802520089825a000a035b0081
:1049c0008b835b00f0ff3b000802420089824a00b3
:1049d0000a034b008b834b008d06e900edff3a0084
:1049e0008482720086827200f707b20087827200aa
:1049f00001003200150020001e0490003e0b9000c4
:104a000006035400e63fb0000368a300070032002d
:104a10000000a7000500a0008301d1000281d3009f
:104a20008180d3000080d3000603e8008301d10019
:104a30000281d3008180d3000080d3000002eb000c
:104a40000482d2001200070003f0a1000cf0a700be
:104a500003f0a0004e003700640247006408e10044
:104a6000480032003400be003401be00f6ff3700bb
:104a70006108e100430032006011b8006000b80036
:104a8000f1ff370003ff270002002000fbff370083
:104a90001800200057002000080453000d003d00be
:104aa0000600200097fc2f000740e1001e003400a4
:104ab00084827200610260008301d1000281d30010
:104ac0008180d3000080d3000804e800f8ff3a009a
:104ad00047002000610460000504740004046400c1
:104ae0000d00320061004000e08048006001490094
:104af000e081490003b8a500070032000603e80082
:104b00006538e10004003a008301d1000281d3003e
:104b10008180d3000080d300f87f20000830e100be
:104b200003003500080378006000b8006011b80089
:104b30004433dd00f300b20083017300000006007f
:104b4000680447000294be000094be00fc044700c5
:104b50008694be008494be0009007800a601070078
:104b600008007800a401070099007800814f7000c8
:104b70000b003b000800be007e0107004f00b100a3
:104b800003003700f3ff2700f2ff2f006110b90088
:104b90004f06be004f05be004f04be000080fa0065
:104ba0000000060081037800b7f107000001be0095
:104bb0006000b8000478a30013003a006220e1000e
:104bc00015003e000d0039008301d1000281d300a1
:104bd0008180d3008301d1000281d3008180d30082
:104be0008301d1000281d3008180d3000538b00059
:104bf000c42add00f300b2008381720007f0a70031
:104c000003f0a00000000600f3ff2700f2ff2f00d2
:104c10006110b900fbff370003ff2700f7ff3700e3
:104c20001400fa00889fbe008a9fbe008c9fbe00c1
:104c30000004be000205be00680047000a90be00e6
:104c40000890be006c0107000070a7000bf0a100e7
:104c5000304320009e02900080825200b0fe2f0060
:104c60000028e10011003d00b0fc2f000028e10009
:104c7000150034001e0990008e0890007e00900000
:104c80000501b0000201d1008180d3000080d30073
:104c90008502e800fbff3a000b00e000bcff3b0090
:104ca00060001000e0801800b9ff3700f0ff2f000f
:104cb000f1ff27000b00e000b5ff3b0001002800da
:104cc00000002000b2ff37006000b800b0ff3700de
:104cd0004f89de00820178006e013700000000007d
:104ce0002800fa00889fbe008a9fbe008c9fbe00ed
:104cf00003866b0092ff07000028a30064003a00bf
:104d00000128a30068003a000008a30062003a00ee
:104d10000108a30066003a001e009000be08900043
:104d200081064000ed3fb100f4805700ee01900095
:104d3000111ab8008e099000311bb8009e0990002e
:104d4000311cb800511db800f4855700460007001b
:104d5000fe0190003a0007008b85e8003e00070046
:104d60008e09900040000700ee019000340007001b
:104d70008b85e800380007008e099000400007008e
:104d80009e0990001b18b800890440000a8548005d
:104d9000fe019000340007008b85e8003800070012
:104da000ee019000300007008e0990001b18b8003b
:104db000890440000a8548000a98a30008003a00c8
:104dc0000402420085824a0006034b0087834b00a1
:104dd00008044c0089844c000a054d008d06e9004a
:104de00084827200850273004c3add0085027200f5
:104df0000100320015002000443ade001400b20029
:104e00004538de00cb45dd000b007000c540de00fc
:104e1000cb4ddd008b8070004549de00cb55dd00b9
:104e20000b017100c551de000d03780018ff07006b
:104e300003f0a1000cf0a70003f0a00054ff37001e
:104e40001b18b8008502400006834800e0834b0031
:104e500060044c00070037001b18b8000603400030
:104e600087834800faff37001b18b800870340000b
:104e700008844800e0844c0060054d0000000600f6
:104e80001b18b8000804400089844800faff370066
:104e90000108a3003bff3a005800be0000000000dc
:104ea0005801be00e2ff37000008a30035ff3a00ba
:104eb00009047800f8ff370007f0a2000600370069
:104ec000020ab900001bb9000200b80081004200cc
:104ed00081004300000006002800fa00889fbe0001
:104ee0008a9fbe008c9fbe000706780087866900f7
:104ef0000c003b00030478008704780008f0a10050
:104f000009f0a100840f5000858f5800860f5900ca
:104f1000890f5c00030033000cf0a20001003a008e
:104f20000cf0a10006ff07006400e1005f00320002
:104f3000780147006408e100610032006c0147001d
:104f4000748557003200be001201be003a04be0054
:104f50001a05be001e039000be0a90008503530090
:104f600006003d000004fd008104fd000205fd0077
:104f70008305fd008703ea00050378000df8a30010
:104f80000400320060041400e0841c0060051d0071
:104f9000e0851d006022b8007d0320000d38e1008f
:104fa0008006eb000b0039004433dd00f300b20053
:104fb0008301730039003700848272000d0278008b
:104fc000e10664008b85d1000a85d3008984d30073
:104fd0000884d3008703e900f7ff3b000800400086
:104fe000898048000a0149008b81490004003b0088
:104ff00060001000e080180060011900e0811900d5
:105000000358a300090032008d827200848272006e
:10501000610260008301d1000281d3008180d3004e
:105020000080d3000603e8001b0037000348a300fc
:1050300017003a000600e000170034000603e900fc
:105040000d00a300000048008180480002014900d3
:10505000838149000348a3000f003a000600e000e6
:10506000090034000603e900000040008180480088
:10507000020149008381490001003a000003eb006e
:105080000348a300f5ff32006022b8000200370099
:1050900084827200618266007dfe070003f0a10039
:1050a0000cf0a70003f0a000b9fe37006401470030
:1050b0006408e10002003a000df8a300b1fe3a00d6
:1050c00032007800b20078001201be00b0fe370056
:1050d000889fbe008a9fbe008c9fbe000404be0055
:1050e0000605be00809fbe00829fbe003000070004
:1050f000040678000800be000a01be002c0007006c
:10510000840678004f03be004f02be008d4f76002c
:105110007fb0970013003300f0ff2f008b8f6b00e0
:1051200006003b000d0666000c00a7000a003700d1
:1051300007f0a600100020000a003700880f520078
:10514000898f5a008a0f5b008b8f5b000300390048
:105150001000200001003e000000200007f0a70022
:105160000000ea004f06be004f05be004f04be001f
:1051700000000600e48240001078a300070032001f
:10518000640240001178a3003400be001401be0088
:10519000050032000330a70000000600350078004b
:1051a000b50078001501be000330a0000000060025
:1051b00005ff270005826100070032000428e10096
:1051c00001003200240005000600070001003a003b
:1051d000440005000408050002000700f9ff3a003a
:1051e000140005006f826100810270008502710069
:1051f00085027200000006005002be00e40050006c
:105200005003be004439de00f700b200f37f2000f7
:1052100003016100090032000218e10016003a00a3
:1052200085017200830173008381730000082000f0
:1052300015003a004000200013003700850172007d
:10524000830173008381730005003a0004a8be0047
:1052500006a8be00100020000b0037000201e90084
:105260000402420085824a0006034b0087834b00fc
:105270000748a300f9ff32000740a00004a8be00c1
:1052800006a8be0020002000800098009200980030
:1052900000000600881f7800030478000300e00087
:1052a00007003d0060001000e08018006001190058
:1052b000e081190002003b0001f02d0003003700df
:1052c0000400070008f0a70003f0a0004f047800d6
:1052d00000000600889fbe0000827000040271007a
:1052e000048271002400320036432000c5002000f3
:1052f0008383cf000a0039000541b1008283cf00cb
:10530000070039000541b1008183cf000400390056
:105310000541b1008083cf00010039000541b10093
:1053200085c353006022b800120032000a003b001f
:1053300084827200610260008301d1000281d30087
:105340008180d3000080d3000603e8008743e80093
:10535000f7ff3a0007003700000040008180480056
:1053600002014900838149000603e9008743e900ff
:10537000f9ff3a00c6fd07004f04be00000006001a
:020000040000fa
:105380000203000005060000060a000007030000f3
:1053900004040000060600000304000002050000eb
:1053a00006060000060600000606000006060000cd
:1053b00006060000020300000606000006050000c5
:1053c00009070000060700000706000006070000a6
:1053d000070400000506000006080000070800009a
:1053e0000608000006060000080700000708000085
:1053f0000606000006030000050300000607000083
:105400000305000005050000050500000505000076
:105410000502000004050000020800000505000068
:105420000505000004050000050500000506000054
:10543000050500000406000002060000060000004a
:105440000707000007070000070000000007000032
:105450000606000006060000040400000406000022
:105460000000000008080000080800000800000014
:105470000007000007070000070000000000000010
:1054800005050000050500000500000000050000fe
:1054900005050000050500000303000003040000eb
:1054a00000000000050500000505000005000000e3
:1054b00000070000050500000500000000000000d6
:1054c00000000000000000000000000000000000dc
:1054d00000000000000000000000000000000000cc
:1054e00000000000000000000000000000000000bc
:1054f00000000000000000000000000000000000ac
:10550000000000000000000000000000000000009b
:10551000000000000000000000000000000000008b
:10552000000000000000000000000000000000007b
:10553000000000000000000000000000000000006b
:10554000000000000000000000000000000000005b
:10555000000000000000000000000000000000004b
:10556000000000000000000000000000000000003b
:10557000000000000000000000000000000000002b
:10558000004000000810000068000000004000001b
:1055900010200000008000002040000000200000db
:1055a0000810000034000000200800001000000077
:1055b00000000000000000000000000000000000eb
:1055c00000000000000000000000000000000000db
:1055d00000000000000000000000000000000000cb
:1055e00000000000000000000000000000000000bb
:1055f00000000000000000000000000000000000ab
:10560000000000000000000000000000000000009a
:10561000000000000000000000000000000000008a
:10562000000000000000000000000000000000007a
:10563000000000000000000000000000000000006a
:10564000000000000000000000000000000000005a
:10565000000000000000000000000000000000004a
:10566000000000000000000000000000000000003a
:10567000000000000000000000000000000000002a
:10568000000000000000000000000000000000001a
:10569000000000000000000000000000000000000a
